{
  "contractName": "Society",
  "abi": [
    {
      "constant": true,
      "inputs": [
        {
          "name": "",
          "type": "uint256"
        }
      ],
      "name": "Members",
      "outputs": [
        {
          "name": "id",
          "type": "uint256"
        },
        {
          "name": "name",
          "type": "string"
        },
        {
          "name": "addr",
          "type": "address"
        },
        {
          "name": "CouponsCount",
          "type": "uint256"
        }
      ],
      "payable": false,
      "stateMutability": "view",
      "type": "function"
    },
    {
      "constant": true,
      "inputs": [],
      "name": "AllMembersCount",
      "outputs": [
        {
          "name": "",
          "type": "uint256"
        }
      ],
      "payable": false,
      "stateMutability": "view",
      "type": "function"
    },
    {
      "inputs": [],
      "payable": false,
      "stateMutability": "nonpayable",
      "type": "constructor"
    },
    {
      "constant": false,
      "inputs": [
        {
          "name": "ID",
          "type": "uint256"
        },
        {
          "name": "count",
          "type": "uint256"
        }
      ],
      "name": "getMemberCouponID",
      "outputs": [
        {
          "name": "",
          "type": "uint256"
        }
      ],
      "payable": false,
      "stateMutability": "nonpayable",
      "type": "function"
    },
    {
      "constant": false,
      "inputs": [
        {
          "name": "ID",
          "type": "uint256"
        },
        {
          "name": "count",
          "type": "uint256"
        }
      ],
      "name": "getMemberCouponEndDate",
      "outputs": [
        {
          "name": "",
          "type": "uint256"
        }
      ],
      "payable": false,
      "stateMutability": "nonpayable",
      "type": "function"
    },
    {
      "constant": false,
      "inputs": [
        {
          "name": "ID",
          "type": "uint256"
        },
        {
          "name": "_date",
          "type": "uint256"
        }
      ],
      "name": "updateCoupon",
      "outputs": [],
      "payable": false,
      "stateMutability": "nonpayable",
      "type": "function"
    },
    {
      "constant": false,
      "inputs": [
        {
          "name": "_addr",
          "type": "address"
        }
      ],
      "name": "isMember",
      "outputs": [
        {
          "name": "",
          "type": "bool"
        }
      ],
      "payable": false,
      "stateMutability": "nonpayable",
      "type": "function"
    },
    {
      "constant": false,
      "inputs": [
        {
          "name": "_addr",
          "type": "address"
        }
      ],
      "name": "MemberID",
      "outputs": [
        {
          "name": "",
          "type": "uint256"
        }
      ],
      "payable": false,
      "stateMutability": "nonpayable",
      "type": "function"
    },
    {
      "constant": false,
      "inputs": [
        {
          "name": "_number",
          "type": "uint256"
        },
        {
          "name": "_date",
          "type": "uint256"
        }
      ],
      "name": "spendCoupon",
      "outputs": [],
      "payable": false,
      "stateMutability": "nonpayable",
      "type": "function"
    },
    {
      "constant": false,
      "inputs": [
        {
          "name": "toID",
          "type": "uint256"
        },
        {
          "name": "_number",
          "type": "uint256"
        },
        {
          "name": "_date",
          "type": "uint256"
        }
      ],
      "name": "transferCoupon",
      "outputs": [],
      "payable": false,
      "stateMutability": "nonpayable",
      "type": "function"
    }
  ],
  "bytecode": "0x608060405260006001553480156200001657600080fd5b506200007b6040805190810160405280600481526020017f4a6f686e0000000000000000000000000000000000000000000000000000000081525073ea8416b2275be20ef4eb2ccbd729d03c5efd9e4462000125640100000000026401000000009004565b620000df6040805190810160405280600581526020017f53617261680000000000000000000000000000000000000000000000000000008152507306ee30db3055de76f3d6cc675e1cacbfb9e476b162000125640100000000026401000000009004565b620000ff6000630134173262000207640100000000026401000000009004565b6200011f6001630134173262000207640100000000026401000000009004565b62000387565b60806040519081016040528060015481526020018381526020018273ffffffffffffffffffffffffffffffffffffffff168152602001600081525060008060015481526020019081526020016000206000820151816000015560208201518160010190805190602001906200019c929190620002d8565b5060408201518160020160006101000a81548173ffffffffffffffffffffffffffffffffffffffff021916908373ffffffffffffffffffffffffffffffffffffffff160217905550606082015181600301559050506001600081548092919060010191905055505050565b6000600154831015156200021a57600080fd5b6127108201905060606040519081016040528060008086815260200190815260200160002060030154815260200183815260200182815250600080858152602001908152602001600020600401600080600087815260200190815260200160002060030154815260200190815260200160002060008201518160000155602082015181600101556040820151816002015590505060008084815260200190815260200160002060030160008154809291906001019190505550505050565b828054600181600116156101000203166002900490600052602060002090601f016020900481019282601f106200031b57805160ff19168380011785556200034c565b828001600101855582156200034c579182015b828111156200034b5782518255916020019190600101906200032e565b5b5090506200035b91906200035f565b5090565b6200038491905b808211156200038057600081600090555060010162000366565b5090565b90565b610ae580620003976000396000f300608060405260043610610099576000357c0100000000000000000000000000000000000000000000000000000000900463ffffffff1680630a9818a81461009e5780630ec85245146100d557806327e8fdff1461011657806361a34a79146101615780637b99e7f8146101b8578063a230c52414610203578063a83dbba31461025e578063bf1fd9fe14610345578063ef0e014414610370575b600080fd5b3480156100aa57600080fd5b506100d360048036038101908080359060200190929190803590602001909291905050506103a7565b005b3480156100e157600080fd5b50610114600480360381019080803590602001909291908035906020019092919080359060200190929190505050610519565b005b34801561012257600080fd5b5061014b6004803603810190808035906020019092919080359060200190929190505050610729565b6040518082815260200191505060405180910390f35b34801561016d57600080fd5b506101a2600480360381019080803573ffffffffffffffffffffffffffffffffffffffff16906020019092919050505061075d565b6040518082815260200191505060405180910390f35b3480156101c457600080fd5b506101ed60048036038101908080359060200190929190803590602001909291905050506107f7565b6040518082815260200191505060405180910390f35b34801561020f57600080fd5b50610244600480360381019080803573ffffffffffffffffffffffffffffffffffffffff16906020019092919050505061082b565b604051808215151515815260200191505060405180910390f35b34801561026a57600080fd5b50610289600480360381019080803590602001909291905050506108c7565b60405180858152602001806020018473ffffffffffffffffffffffffffffffffffffffff1673ffffffffffffffffffffffffffffffffffffffff168152602001838152602001828103825285818151815260200191508051906020019080838360005b838110156103075780820151818401526020810190506102ec565b50505050905090810190601f1680156103345780820380516001836020036101000a031916815260200191505b509550505050505060405180910390f35b34801561035157600080fd5b5061035a6109af565b6040518082815260200191505060405180910390f35b34801561037c57600080fd5b506103a560048036038101908080359060200190929190803590602001909291905050506109b5565b005b600080600091505b60008085815260200190815260200160002060030154821015610513578260008086815260200190815260200160002060040160008481526020019081526020016000206002015410156105065760008085815260200190815260200160002060040160008381526020019081526020016000206000808201600090556001820160009055600282016000905550506001820190505b600080858152602001908152602001600020600301548110156104df57600080858152602001908152602001600020600401600082815260200190815260200160002060008086815260200190815260200160002060040160006001840381526020019081526020016000206000820154816000015560018201548160010155600282015481600201559050508080600101915050610445565b60008085815260200190815260200160002060030160008154809291906001900391905055505b81806001019250506103af565b50505050565b60008060006105273361082b565b151561053257600080fd5b600154861115151561054357600080fd5b61054c3361075d565b925061055883856103a7565b84600080858152602001908152602001600020600301541015151561057c57600080fd5b6001600080858152602001908152602001600020600301540391505b60018560008086815260200190815260200160002060030154030382111561060757600080848152602001908152602001600020600401600083815260200190815260200160002060008082016000905560018201600090556002820160009055505081600190039150610598565b84600080858152602001908152602001600020600301600082825403925050819055506000808781526020019081526020016000206003015490505b8460008088815260200190815260200160002060030154018110156106fe57606060405190810160405280600080898152602001908152602001600020600301548152602001858152602001612710860181525060008088815260200190815260200160002060040160008060008a8152602001908152602001600020600301548152602001908152602001600020600082015181600001556020820151816001015560408201518160020155905050806001019050610643565b8460008088815260200190815260200160002060030160008282540192505081905550505050505050565b6000806000848152602001908152602001600020600401600083815260200190815260200160002060020154905092915050565b600080600090505b6001548110156107ed578273ffffffffffffffffffffffffffffffffffffffff1660008083815260200190815260200160002060020160009054906101000a900473ffffffffffffffffffffffffffffffffffffffff1673ffffffffffffffffffffffffffffffffffffffff1614156107e0578091506107f1565b8080600101915050610765565b8091505b50919050565b6000806000848152602001908152602001600020600401600083815260200190815260200160002060000154905092915050565b600080600090505b6001548110156108bc578273ffffffffffffffffffffffffffffffffffffffff1660008083815260200190815260200160002060020160009054906101000a900473ffffffffffffffffffffffffffffffffffffffff1673ffffffffffffffffffffffffffffffffffffffff1614156108af57600191506108c1565b8080600101915050610833565b600091505b50919050565b6000602052806000526040600020600091509050806000015490806001018054600181600116156101000203166002900480601f0160208091040260200160405190810160405280929190818152602001828054600181600116156101000203166002900480156109795780601f1061094e57610100808354040283529160200191610979565b820191906000526020600020905b81548152906001019060200180831161095c57829003601f168201915b5050505050908060020160009054906101000a900473ffffffffffffffffffffffffffffffffffffffff16908060030154905084565b60015481565b6000806109c13361082b565b15156109cc57600080fd5b6109d53361075d565b91506109e182846103a7565b836000808481526020019081526020016000206003015410151515610a0557600080fd5b6001600080848152602001908152602001600020600301540390505b600184600080858152602001908152602001600020600301540303811115610a9057600080838152602001908152602001600020600401600082815260200190815260200160002060008082016000905560018201600090556002820160009055505080600190039050610a21565b8360008084815260200190815260200160002060030160008282540392505081905550505050505600a165627a7a72305820ba2d516b1faf31b87f3fb2736ae664638d4f366e152fec5ac49ac5edc15942640029",
  "source": "pragma solidity ^0.4.23;\r\n\r\n\r\ncontract Society{\r\n\r\n\tstruct Coupon{\r\n\t\tuint id;\r\n\t\tuint startDate;\r\n\t\tuint endDate;\r\n\t}\r\n\r\n\tstruct Member{\r\n\t\tuint id;\r\n\t\tstring name;\r\n\t\taddress addr;\r\n\t\tuint CouponsCount;\r\n\t\tmapping(uint => Coupon) Coupons;\r\n\t}\r\n\r\n\tmapping(uint => Member) public Members;\r\n\tuint public AllMembersCount = 0; \r\n\t//mapping(Member => mapping(uint => Coupon)) Coupons;\r\n\t\r\n\r\n//get function\r\n    function getMemberCouponID(uint ID, uint count) public returns(uint){\r\n    \treturn Members[ID].Coupons[count].id;\r\n    \t\r\n    }\r\n\r\n    function getMemberCouponEndDate(uint ID, uint count) public returns(uint){\r\n    \treturn Members[ID].Coupons[count].endDate;\r\n    }\r\n\r\n    function addMember(string _name, address _addr) private{\r\n    \tMembers[AllMembersCount] = Member(AllMembersCount, _name, _addr, 0);\r\n    \tAllMembersCount++;\r\n    }\r\n\r\n\tfunction addCoupon(uint ID, uint _startDate) private{\r\n\t\trequire(ID < AllMembersCount);\r\n\t\tuint _endDate = _startDate + 10000;\r\n\t\tMembers[ID].Coupons[Members[ID].CouponsCount] = Coupon(Members[ID].CouponsCount, _startDate, _endDate);\r\n\t\tMembers[ID].CouponsCount++;\r\n\t}\r\n\r\n\t//check if some coupons outdated\r\n\t//helper function\r\n\tfunction updateCoupon(uint ID, uint _date) public{\r\n\t\tfor(uint i = 0; i < Members[ID].CouponsCount; i++){\r\n\t\t\tif(Members[ID].Coupons[i].endDate < _date){\r\n\t\t\t\tdelete Members[ID].Coupons[i];\r\n\t\t\t\tfor(uint j = i+1; j <Members[ID].CouponsCount; j++){\r\n\t\t\t\t\tMembers[ID].Coupons[j-1] = Members[ID].Coupons[j];\r\n\t\t\t\t}\r\n\t\t\t\tMembers[ID].CouponsCount--;\r\n\t\t\t}\r\n\t\t}\r\n\t}\r\n\r\n\t    //helper function\r\n    function isMember(address _addr) public returns(bool) {\r\n    \tfor(uint i = 0; i < AllMembersCount; i++){\r\n    \t\tif(Members[i].addr == _addr)\r\n    \t\t   return true;\r\n    \t}\r\n    \treturn false;\r\n    }\r\n    //helper function\r\n    function MemberID(address _addr) public returns(uint) {\r\n    \tuint i = 0;\r\n    \tfor(; i < AllMembersCount; i++){\r\n    \t\tif(Members[i].addr == _addr)\r\n    \t\t   return i;\r\n    \t}\r\n    \treturn i;\r\n    }\r\n\r\n\t//_number: number of coupons going to be used\r\n\tfunction spendCoupon(uint _number,uint _date) public{\r\n\t\trequire(isMember(msg.sender));\r\n\t\tuint _id = MemberID(msg.sender);\r\n\t\tupdateCoupon(_id,_date);\r\n\t\trequire(Members[_id].CouponsCount >= _number);\r\n\t\tfor(uint i = Members[_id].CouponsCount - 1; i > Members[_id].CouponsCount - _number - 1; --i){\r\n\t\t\tdelete Members[_id].Coupons[i];\r\n\t\t}\r\n\t\tMembers[_id].CouponsCount-=_number;\r\n\t}\r\n\r\n\tfunction transferCoupon(uint toID, uint _number, uint _date) public{\r\n\t\trequire(isMember(msg.sender));\r\n\t\trequire(toID <= AllMembersCount);\r\n\t\tuint _id = MemberID(msg.sender);\r\n\t\tupdateCoupon(_id,_date);\r\n\t\trequire(Members[_id].CouponsCount >= _number);\r\n\t\tfor(uint i = Members[_id].CouponsCount - 1; i > Members[_id].CouponsCount - _number - 1; --i){\r\n\t\t\tdelete Members[_id].Coupons[i];\r\n\t\t}\r\n\t\tMembers[_id].CouponsCount-=_number;\r\n\t\tfor(uint j = Members[toID].CouponsCount; j < Members[toID].CouponsCount + _number; ++j){\r\n\t\t\tMembers[toID].Coupons[Members[toID].CouponsCount] = Coupon(Members[toID].CouponsCount, _date, _date + 10000);\r\n\t \t}\r\n\t\tMembers[toID].CouponsCount+=_number;\r\n\r\n\t}\r\n\tfunction Society() public{\r\n\t\t//fill in the addresses\r\n\t\taddMember(\"John\",0xea8416B2275bE20eF4EB2CCBd729d03c5eFd9E44);\r\n\t\taddMember(\"Sarah\",0x06Ee30dB3055De76f3D6Cc675e1caCbfB9e476B1);\r\n\t\taddCoupon(0,20191026);\r\n\t\taddCoupon(1,20191026);\r\n\t}\r\n}\r\n",
  "sourcePath": "D:/demo/contracts/Society.sol",
  "compiler": {
    "name": "solc",
    "version": "0.4.23+commit.124ca40d.Emscripten.clang"
  },
  "schemaVersion": "3.0.18",
  "updatedAt": "2019-12-22T06:40:29.428Z",
  "networkType": "ethereum",
  "devdoc": {
    "methods": {}
  },
  "userdoc": {
    "methods": {}
  }
}